:020000040000FA
:10000000D8040010A1010000A9010000AB0100000C
:10001000AD010000AF010000B101000000000000D0
:10002000000000000000000000000000B30100001C
:10003000B501000000000000B701000085020000CB
:10004000BB010000C7240000BB010000BB01000091
:10005000BB010000BB010000BB010000BB010000B0
:10006000BB010000BB010000BB010000BB010000A0
:10007000BB010000BB010000BB010000BB01000090
:10008000BB010000BB010000BB010000BB01000080
:10009000BB010000BB010000BB010000BB01000070
:1000A00043220000BB010000BB010000BB010000B7
:1000B000BB010000BB010000BB010000BB01000050
:1000C000BB010000BB010000BB01000000F002F812
:1000D00000F03CF80AA090E8000C82448344AAF1A6
:1000E0000107DA4501D100F031F8AFF2090EBAE8A4
:1000F0000F0013F0010F18BFFB1A43F0010318475C
:10010000A4540400C4540400103A24BF78C878C131
:10011000FAD8520724BF30C830C144BF04680C600D
:10012000704700000023002400250026103A28BF55
:1001300078C1FBD8520728BF30C148BF0B60704759
:100140001FB503F05EFB1FBD10B510BD03F065FBCE
:100150001146FFF7F5FF01F08FFC03F083FB03B4BA
:10016000FFF7F2FF03BC03F087FB00000B49D1F857
:1001700000C04A685CF8043B1068184442F8040B5D
:100180008C4528BFA1F1DC0C8A4228BFA1F1DC021A
:10019000C1F800C04A6020F00040704770020010B3
:1001A0000948804709480047FEE7FEE7FEE7FEE70B
:1001B000FEE7FEE7FEE7FEE7FEE7FEE70448054947
:1001C000034A054B70470000A9040000CD00000061
:1001D000D8020010D8040010D8020010224800688D
:1001E00040F410402149C1F8C4002148406820F47F
:1001F00040201F4948600846406840F4802048601D
:100200000846406C20F4402048640846406C40F4A6
:100210000020486417481849886370471648806B67
:1002200020F0E060144988630846806B40F08070DD
:10023000886370471048806B20F0E0600E49886347
:10024000704700BF0C48C06B10F0004FFAD00A484E
:10025000C06BC0F30B1009490880012008490870E1
:100260000648008870470000C4C00F4000C00F401F
:1002700000C0024004042000004003400A000010B7
:100280000800001010B5174801680068401C154AA6
:100290001060092905D30020114608600120124989
:1002A0000870124801680068401C104A106010482D
:1002B0000088B1EB202F12D30020114608600D48B2
:1002C000006840000B49086008460068B0F5807F70
:1002D00001D9012008600748006801F04EF8FFF7D7
:1002E0009DFF10BD14000010200000101800001029
:1002F0000A0000101C00001070470000FFFFFFFF05
:100300002DE9F047F9480068C0F3016003287CD16B
:10031000F748006810F0030006D0012833D0022807
:100320005FD003282ED100E000BFF0480068C0F382
:10033000074000F101044FF00201EE48D0F88800B8
:10034000C0F30E0000F10100A1FB0001EA4B4FF0E9
:10035000000CA0FB037901FB039100FB0C1122466A
:100360006346384603F0C0F90546E4480068C0B269
:1003700000F1010422464FF00003284603F0B4F9CF
:10038000DF4908605DE0D9480068C0F3074000F12C
:1003900001044FF00201D748D0F88800C0F30E00E6
:1003A00000F10100A1FB0010D64A4FF0000CA1FBA8
:1003B000027900FB029001FB0C012246634638469D
:1003C00003F092F90546CD480068C0B200F101047F
:1003D00022464FF00003284603F086F9C84908601A
:1003E0002FE0C2480068C0F3074000F101044FF05D
:1003F0000201C048D0F88800C0F30E0000F10100EF
:10040000A1FB00124FF4004000E01BE04FF000039E
:10041000A1FB007902FB009001FB03012246384654
:1004200003F062F90546B5480068C0B200F1010466
:1004300022464FF00003284603F056F9B049086001
:1004400000BF2FE0AA48006810F0030006D0012882
:1004500010D0022819D0032823D100E000BFA748FC
:100460000068C0B200F10100A349B1FBF0F0A4495B
:10047000086016E0A1480068C0B200F10100A1497F
:10048000B1FBF0F09E4908600BE09C480068C0B2E8
:1004900000F101004FF40041B1FBF0F09849086011
:1004A00000BF00BFBDE8F087202097490860914851
:1004B000D0F8A00110F0200F05D000BF92480068CE
:1004C00010F0400FFAD003208C4908604FF0000074
:1004D0008849C1F8A8018D4908604FF0010084499E
:1004E00008608B488B4908604FF0AA008A49086071
:1004F0004FF0550008604FF00100884908604FF048
:10050000AA00854908604FF055007A49C1F88C006F
:1005100000BF7648006810F0806FFAD003207F4952
:1005200008604FF0AA007349C1F88C004FF05500E5
:100530007949086000BF6D48006800F04070B0F174
:10054000407FF8D12320764908604FF0AA0069491E
:10055000C1F8AC004FF05500724908604FF001003F
:10056000714908604FF0AA006E4908604FF05500CD
:100570006049C1F8AC0000BF6C48006810F4806F9F
:10058000FAD00320684908604FF0AA005949C1F821
:10059000AC004FF055006349086000BF6348006835
:1005A00000F44070B0F5407FF8D1614861490860BF
:1005B0004FF000004F49C1F8C8010846006820F418
:1005C000704040F480400860704748480068C0F3BD
:1005D0000160032866D14648006810F0030006D089
:1005E000012823D002283FD003285AD100E000BFC1
:1005F0003E480068C0F30E0000F101004FEA4001E0
:100600003C48D0F88800C0F3074000F10100B1FB7E
:10061000F0F0394900FB01F038490968C9B201F12D
:100620000101B0FBF1F0444908603AE02F4800684E
:10063000C0F30E0000F101004FEA40012D48D0F850
:100640008800C0F3074000F10100B1FBF0F02D4934
:1006500000FB01F029490968C9B201F10101B0FBB1
:10066000F1F0354908601CE020480068C0F30E0036
:1006700000F101004FEA40011E48D0F88800C0F3A5
:10068000074000F10100B1FBF0F04FEAC0311B4818
:100690000068C0B200F10100B1FBF0F0264908602B
:1006A00000BF58E01248006810F0030006D001288F
:1006B00010D0022842D003284CD100E000BF0F48E0
:1006C0000068C0B200F101000B49B1FBF0F01A491B
:1006D00008603FE009480068C0B200F10100094924
:1006E000B1FBF0F01449086034E0000088C00F400E
:1006F0000CC10F4000C00F4000093D0004C10F4075
:1007000000000010001BB700A0C10F40ACC10F409B
:100710006300050084C00F408CC00F4080C00F40B4
:10072000A4C00F40ACC00F40A0C00F40A8C00F40F5
:10073000DE872804C4C00F4004000010064800688B
:10074000C0B200F101004FF40041B1FBF0F00349E9
:10075000086000BF00BF704704C10F4004000010D4
:10076000800400BF0100A0F10100FBD170472DE91A
:10077000F04106460D460027012D06D1FE480068CF
:1007800040F40070FC49086005E0FB48006820F474
:100790000070F9490860072422E08020F649C8610A
:1007A0000120FFF7DDFF012D0CD10120A0403042D8
:1007B00003D06802F04988610BE04FF40070EE4905
:1007C000C86106E0EC484069C0F34020A0403843CF
:1007D000C7B28020E84988610120FFF7C1FF641E8D
:1007E000002CDADA3846BDE8F08110B50446402026
:1007F000E149C861702000F04CFD002000F049FD87
:10080000204600F046FD4020DB49886110BD10B550
:1008100004464020D849C861722000F03AFD2012F9
:1008200000F037FDE0B200F034FD4020D24988618D
:1008300010BD70B505462846FFF7D7FF00BF00245E
:100840004020CD49C861732000F023FD002000F056
:1008500020FD002000F01DFD04464FF6FF7000EA69
:100860000424002000F015FD04434020C2498861A3
:10087000204670BD10B5C148006820F47C20BF49F7
:1008800008600846006C40F42A200864BA480068F2
:1008900040F08000B849086040208861802088616D
:1008A0004020C86101217020FFF761FF0121002075
:1008B000FFF75DFF4020B0498861C86101217320C6
:1008C000FFF755FF00210846FFF751FF044640207F
:1008D000A94988610846006820F080000860A748A0
:1008E000006840F42820A54908600846006C20F400
:1008F0007F200864204610BD10B5A148006840F470
:100900008060A049C1F8C4000846D0F8A80140F4AE
:100910000010C1F8A8019948406A20F0706097491A
:1009200048629548D0F8800040F0405096490860F1
:100930004FF000509049C1F898000846006840F018
:10094000400008604FF0400088618C48006820F447
:100950007C208A4908600846006840F42820086026
:1009600040F2C710894908604FF0020008614860F2
:10097000FFF780FF04461CB90020FFF75AFF04462A
:10098000472C7DD10120824908700021EA2000F027
:10099000A2FC2021EB2000F09EFC0C21EC2000F0BA
:1009A0009AFCC721ED2000F096FC3821E82000F0E9
:1009B00092FC1021E92000F08EFC0121F12000F0D2
:1009C0008AFC1021F22000F086FC0121402000F07A
:1009D00082FC0021412000F07EFC0021422000F03A
:1009E0007AFC1021432000F076FC0E21442000F018
:1009F00072FC2421452000F06EFC0421462000F00A
:100A00006AFC5021472000F066FC0221482000F0DB
:100A100062FC1321492000F05EFC19214A2000F0FD
:100A20005AFC19214B2000F056FC16214C2000F0F6
:100A300052FC1B21502000F04EFC3121512000F0CF
:100A40004AFC2F21522000F046FC3F21532000F0A9
:100A500042FC3F21542000F03EFC3E21552000F096
:100A60003AFC2F21562000F036FC7B21572000F065
:100A700032FC0921582000F02EFC0621592000E00C
:100A800098E000F028FC06215A2000F024FC0C21FC
:100A90005B2000F020FC1D215C2000F01CFCCC2120
:100AA0005D2000F018FC1B21084600F014FC012119
:100AB0001A2000F010FC2F21242000F00CFC5721FC
:100AC000252000F008FC8821232000F004FC3621BA
:100AD000182000F000FC0121192000F0FCFB00218F
:100AE000012000F0F8FB88211F2000F0F4FB142007
:100AF000FFF736FE82211F2000F0EDFB0520FFF7F7
:100B00002FFE92211F2000F0E6FB0520FFF728FEB4
:100B1000D2211F2000F0DFFB0520FFF721FE552129
:100B2000172000F0D8FB0021084600F0D4FB11216B
:100B30002F2000F0D0FB0021312000F0CCFB002161
:100B4000322000F0C8FB3821282000F0C4FB14201C
:100B5000FFF706FE3C21282000F0BDFBA82116204F
:100B600000F0B9FB00210E2000F0B5FB00210F20A2
:100B700000F0B1FB01210DE000C0092000C00240DF
:100B8000C4C00F4000C00F4080C0092000000340D7
:100B900010000010102000F09EFB4021112000F0FA
:100BA0009AFB0021122000F096FB0021132000F098
:100BB00092FB91E10020F94908704FF48071012007
:100BC00000F089FB4FF4E061022000F084FB00217B
:100BD000042000F080FB40F20721082000F07BFB9E
:100BE0000021092000F077FB00210A2000F073FBB0
:100BF00000210C2000F06FFB00210D2000F06BFBAA
:100C000000210F2000F067FB0021102000F063FBA3
:100C10000021112000F05FFB0021122000F05BFB9F
:100C20000021132000F057FB1420FFF799FD41F23B
:100C3000B021102000F04FFB0721112000F04BFBEA
:100C40000520FFF78DFD40F2BD11122000F043FB9F
:100C50000520FFF785FD4FF4A051132000F03BFB6A
:100C60000E21292000F037FB0520FFF779FD002138
:100C7000202000F030FB0021212000F02CFBA4F507
:100C8000A840083806D0A0F57C5018387ED005283A
:100C90007DD150E040F60D31302000F01CFB41F6D4
:100CA0002311312000F017FB41F62641322000F0DD
:100CB00012FB42F21C61332000F00DFB42F219419D
:100CC000342000F008FB40F60B51352000F003FB08
:100CD00041F20601362000F0FEFA4FF4C2613720DF
:100CE00000F0F9FA40F20671382000F0F4FA4FF4FF
:100CF0004171392000F0EFFA40F605613A2000F02A
:100D0000EAFA40F601613B2000F0E5FA4FF4877102
:100D10003C2000F0E0FA40F20E513D2000F0DBFAFA
:100D200040F203413E2000F0D6FA40F207613F2036
:100D300000F0D1FA61E00021302000F0CCFA40F25E
:100D40000761312000F0C7FA40F20531322000F08F
:100D5000C2FA0021352000F0BEFA41F204613620CB
:100D600000F0B9FA4FF40171372000F0B4FA012114
:100D7000382000F0B0FA40F20771392000F0ABFAE9
:100D800000213C2000F0A7FA0F2101E005E003E07C
:100D90003D2000F0A0FA30E000BF0621302000F036
:100DA0009AFA40F20111312000F095FA0321322025
:100DB00000F091FA4FF48371352000F08CFA40F680
:100DC0000231362000F087FA40F20231372000F07D
:100DD00082FA40F20771382000F07DFA07213920AD
:100DE00000F079FA4FF4C0613C2000F074FA40F250
:100DF0000B213D2000F06FFA00BF00BF0021502002
:100E000000F069FAEF21512000F065FA002152202C
:100E100000F061FA40F23F11532000F05CFAA4F5B3
:100E2000A840083806D0A0F57C5018380AD005280C
:100E300007D100E000BF4FF41C51602000F04BFAD6
:100E400006E000BF4FF42741602000F044FA00BFE5
:100E500000BF0121612000F03EFA00216A2000F06D
:100E60003AFA0021802000F036FA0021812000F0BB
:100E700032FA0021822000F02EFA0021832000F0B7
:100E80002AFA0021842000F026FA0021852000F0B3
:100E900022FA1021902000F01EFA0021922000F08A
:100EA0001AFA0321932000F016FA4FF48871952066
:100EB00000F011FA0021972000F00DFA002198208F
:100EC00000F009FA41F23801032000F004FA40F280
:100ED0003711072000F0FFF94FF0805030490860CB
:100EE00010BD2DE9F04704460D4616461F462B4817
:100EF000007860B3A019A0F10108E819A0F1010978
:100F0000C4F30F21022000F0E6F9E1B2032000F063
:100F1000E2F9C8F30F21042000F0DDF908F0FF0129
:100F2000052000F0D8F9C5F30F21062000F0D3F911
:100F3000E9B2072000F0CFF9C9F30F21082000F033
:100F4000CAF909F0FF01092000F0C5F91BE0A9B2B8
:100F5000502000F0C0F9E819401E81B2512000F085
:100F6000BAF9A1B2522000F0B6F9A019401E81B220
:100F7000532000F0B0F9A9B2202000F0ACF9A1B2E2
:100F8000212000F0A8F9BDE8F08710B5F0234FF458
:100F9000A07200210846FFF7A4FF10BD100000104A
:100FA00098C0092070B504460D46D048007820B39B
:100FB000C4F30F21022000F08EF9E1B2032000F00B
:100FC0008AF9C4F30F21042000F085F9E1B205206D
:100FD00000F081F9C5F30F21062000F07CF9E9B299
:100FE000072000F078F9C5F30F21082000F073F90D
:100FF000E9B2092000F06FF907E0A9B2202000F063
:101000006AF9A1B2212000F066F92220FFF7EDFB7A
:10101000B7494888FFF7FBFB70BDB549488070476A
:10102000B3490880704770B50546FFF7AEFF222030
:10103000FFF7DBFB00F03AF9002403E0284600F05C
:1010400041F9641CB4F5963FF8D300F037F970BD50
:101050002DE9FF5F8346164699460E9F4B46324662
:1010600058460199FFF73DFF2220FFF7BEFB00F035
:101070001DF9F01D4FEAD00ABAF1010F16D1002573
:1010800011E097F800807F1C002409E028FA04F1A1
:1010900001F00101964A32F8110000F013F9641CC6
:1010A000B442F3D36D1C4D45EBD318E0BAF1020FF7
:1010B00015D1002511E0B7F80080BF1C002409E01D
:1010C00028FA04F101F00101894A32F8110000F018
:1010D000F9F8641CB442F3D36D1C4D45EBD300F01A
:1010E000EDF8BDE8FF9FF8B505460E4617461C46CD
:1010F000A4F12000C4B217B1012F1CD10CE07D482F
:1011000000EBC400E90006EB460200905000082303
:101110000622FFF79DFF0EE004EB4400764901EB49
:10112000001005EB4502D100009030011823102279
:10113000FFF78EFF00BF00BFF8BD2DE9F041064666
:101140000D4617461C4607E014F8013B29466D1C66
:101150003A463046FFF7C7FF20780028F4D1BDE8B3
:10116000F08170B590B006460D46FFF70EFF15B141
:10117000012D1CD10DE0002404E0202001A9085518
:10118000601CC4B2362CF8DB002101AA601C11548B
:101190000DE0002404E0202001A90855601CC4B221
:1011A000142CF8DB002101AA601C115400BF00BF01
:1011B00001AB2A4600213046FFF7BFFF10B070BDDB
:1011C0002DE9F04781468A4614461E46089F07FBD4
:1011D00004F0870A3346224651464846FFF781FE0F
:1011E0002220FFF702FB00F061F84FF0000812E048
:1011F00000250BE0BD4204D33D49088800F062F8A9
:1012000003E03B49488800F05DF86D1C601EA84271
:10121000F0D208F10108B045EAD300F04FF8BDE87C
:10122000F0872DE9F05F8046894614461F46DDF8B9
:1012300028A0D3463B46224649464046FFF751FE8A
:101240002220FFF7D2FA00F031F800250AE000264C
:1012500005E0A9193BF8110000F034F8761CA6420D
:10126000F7D32544781E6043A842F0D800F026F852
:10127000BDE8F09F704710B504462046FFF7B5FA69
:1012800010BD70B504460D462946204600F023F8EF
:1012900070BD01461948816000BF1848C06810F051
:1012A000040FFAD015488068C0B2704710B54020CE
:1012B0001349C8617220FFF7ECFF10BD40201049B0
:1012C0008861704710B504462012FFF7E2FFE0B2D4
:1012D000FFF7DFFF10BD70B505460C462846FFF747
:1012E00084FA2046FFF793FA70BD0000100000104A
:1012F0000C000010CC3D00004C41000000000340F9
:1013000000C009202648006840F400402549C1F883
:10131000C4002548006A40F030402349086208466E
:10132000006C40F07C0008647047032808D21E4916
:10133000496B1E4A52F8202011431B4A516307E0B3
:101340001949496D194A52F820201143164A51652E
:101350007047032808D21449496B144A52F82020D8
:101360009143114A516307E00F49496D0F4A52F802
:10137000202091430C4A5165704710B50446002364
:101380000BE001209840204203D01846FFF7CDFF24
:1013900002E01846FFF7DDFF5B1C082BF1DB10BDF8
:1013A000C4C00F4000C00F4000C009204C560000D0
:1013B0001248006840F400401149C1F8C4001148C7
:1013C000C068114900EA01000E49C8600F48006A70
:1013D00020F0F2600D49086270470C49496B792290
:1013E00002EA1150704700B50023FFF7F6FF0346ED
:1013F000792020EA0303184600BD0000C4C00F4056
:1014000000C00F4000C00240FF3CC0FF00C00920E8
:10141000800400BF0100A0F10100FBD1704710B5AE
:1014200043E0FFF7E0FFFB4908600020FFF7F8FD0D
:101430004FF6FF70FFF7F1FDF7A3012200210846E8
:10144000FFF77BFE4FF6FF70FFF7E7FD0020FFF789
:10145000E7FDF8A3012204210320FFF76EFEF9A3A4
:10146000012204210846FFF768FEFAA301220421A5
:101470000520FFF762FEFBA3012202210820FFF7EF
:101480005CFEFCA3012204210920FFF756FEE1487F
:101490000068012809D14FF6FF70FFF7C4FD002056
:1014A000F649087001F07BFE00BFF448007801287F
:1014B000B7D010BD10B53DE0FFF795FFD5490860E6
:1014C0000020FFF7ADFD4FF6FF70FFF7A6FDECA380
:1014D000012200210846FFF730FE4FF6FF70FFF7AC
:1014E0009CFDD4A3012204210320FFF726FEEBA3D9
:1014F000012204210846FFF720FEEDA3012204216A
:101500000520FFF71AFED7A3012202210820FFF7CA
:1015100014FED8A3012204210920FFF70EFEBD48C6
:101520000068012806D14FF6FF70FFF77CFD01F03F
:1015300013FE00BFE24800780128BDD010BD08B5F9
:101540004FF6FF70FFF76FFD3DE0FFF74CFFB1492D
:10155000086008460068102808D1DA4800680328A7
:1015600004D0D8480068401CD6490860A9480068E3
:10157000402807D1D348006820B1D2480068401EF7
:10158000D0490860CF480068012807D1CE4896238B
:10159000C822142100903C20FFF743FEC948006890
:1015A000022807D1C9489623C822142100903C2064
:1015B000FFF737FE97480068012804D10A20FFF79B
:1015C00027FF00F001F8C0E710B50120C0490870FE
:1015D0004FF6FF70FFF727FD1F20FFF721FD4FF4A7
:1015E0007840FFF71AFDBBA3012200210846FFF750
:1015F000A4FD4FF6FF70FFF710FDBDA301220021EF
:101600001046FFF79AFD4FF6FF70FFF709FD1F2008
:10161000FFF703FDBCA3012203210420FFF78DFD8A
:10162000BEA3012203210520FFF787FDBFA30122EE
:1016300003210620FFF781FDBFA30122032107201C
:10164000FFF77BFDC0E1FFF7CEFE72490860084658
:101650000068202808D19B480068042804D09948D5
:101660000068401C974908606A480068082808D14B
:1016700094480068012804D092480068401E9149AF
:1016800008609048006801282BD11F20FFF7C8FC94
:101690004FF47840FFF7C1FCAAA3012203210420E4
:1016A000FFF74BFD4FF6FF70FFF7BAFC1F20FFF767
:1016B000B4FC9AA3012203210520FFF73EFD9BA362
:1016C000012203210620FFF738FD9BA301220321FD
:1016D0000720FFF732FD4F480068012801D1FFF7CE
:1016E0002EFF78480068022832D14FF6FF70FFF7CE
:1016F00097FC1F20FFF791FC83A301220321042004
:10170000FFF71BFD1F20FFF78BFC4FF47840FFF71E
:1017100084FC91A3012203210520FFF70EFD4FF663
:10172000FF70FFF77DFC1F20FFF777FC7FA30122EE
:1017300003210620FFF701FD7FA3012203210720DB
:10174000FFF7FBFC33480068012801D100F042F9A3
:101750005C48006803283CD14FF6FF70FFF760FC3F
:101760001F20FFF75AFC68A3012203210420FFF782
:10177000E4FC6AA3012203210520FFF7DEFC1F2001
:10178000FFF74EFC4FF47840FFF747FC76A30122A9
:1017900003210620FFF7D1FC4FF6FF70FFF740FC56
:1017A0001F20FFF73AFC64A3012203210720FFF763
:1017B000C4FC1848006801280BD100204449087077
:1017C0004FF6FF70FFF72FFC01202C490870FFF740
:1017D00071FE3C48006804281AD14FF6FF70FFF7ED
:1017E0001FFC1F20FFF719FC47A30122032104203F
:1017F000FFF7A3FC49A3012203210520FFF79DFC6D
:101800004FF6FF70FFF70CFC1F20FFF706FCB1E05E
:10181000DAE00000240000102020202046727569C4
:10182000742047616D6520202020090909090909F4
:1018300009000000494E535452554354494F4E53EA
:101840003A000000436174636820667275697473BE
:101850002020000077697468206261736B657420D2
:101860000000000050726573732073656C656374CB
:1018700020746F0053746172742120002E000010D8
:10188000202020204375702047616D652020202096
:1018900020202020202020200000000047756573B4
:1018A000732077686963682063757020000000000A
:1018B000486173207468652062616C6C20000000D0
:1018C0002D00001028000010107B0100A1DA02009A
:1018D0002C0000102020202048617272656E636524
:1018E000204D617468692020202020202000000005
:1018F000202020204D656469612043656E74657207
:10190000202020202020200020202050686F746F8D
:101910002047616C6C657279000000002020204D2A
:101920007573696320506C617965720020202047CF
:10193000616D65310000000020202047616D653237
:10194000000000002D3E2050686F746F2047616CCE
:101950006C657279000000002D3E204D757369633F
:1019600020506C61796572002D3E2047616D6531B4
:101970000000000047A3012203210620FFF7DDFB42
:101980001F20FFF74DFB4FF47840FFF746FB44A3C1
:10199000012203210720FFF7D0FB4FF6FF70FFF76E
:1019A0003FFB1F20FFF739FB4048006801280BD19F
:1019B00000203F4908704FF6FF70FFF734FB01200D
:1019C0003C490870FFF72BFD3948007801283FF4A7
:1019D0003AAE10BD10B54FF6FF70FFF724FB0120A3
:1019E0003549087043E0FFF7FEFC304908600020ED
:1019F000FFF716FB4FF6FF70FFF70FFB2FA3012237
:101A000000210846FFF799FB4FF6FF70FFF708FB30
:101A10000020FFF702FBAFF2E413012204210320B0
:101A2000FFF78BFB2DA3012202210520FFF785FB89
:101A30002FA3012204210620FFF77FFB1B4800682B
:101A4000012807D100201C49087000F0C0FD0120CA
:101A50001949087015480068402808D14FF6FF70F2
:101A6000FFF7E1FA002014490870FFF7ADFD1248B6
:101A700000780128B7D010BD10B5FEF73DFF4FF636
:101A8000FF70FFF7D0FAFFF793FCFFF79DFD0020F2
:101A900010BD000020090947616D6531000000009C
:101AA0002D3E2047616D65320000000024000010CB
:101AB0002C0000102E0000102F00001020202020ED
:101AC0004D5553494320504C415945522020202028
:101AD00020202020202020200000000041444A55E2
:101AE000535420504F54454E5454494F0000000069
:101AF000464F5220564F4C554D45200010B500F032
:101B0000F1FD10BD7047704770471FB5044614F0D3
:101B1000080F2AD0032000F067FB2B4909682B4AE5
:101B20001288022303FB0211884217D0274800883D
:101B300080302649088008460088C0F309000880E4
:101B40000846008822490988401AC0F30900B0F508
:101B5000007F0AD101201F49087006E000201D49BE
:101B600008701A4800881A4908800A20F0B11648FF
:101B7000006816490988022202FB01000090042037
:101B8000ADF804000020ADF806001348006802908C
:101B900000200390039820F00200801C0390694607
:101BA000032000F06BFA032000F0E4FA1FBD704739
:101BB000704770477047704770477047704770476D
:101BC00070477047704700003C0000104A0000104A
:101BD000480000104C0000103800001001460A07B1
:101BE000D00E11F0800F00D0401C70471021FE4A2B
:101BF0001160FE49C1F8100200BFFD49096811F0EB
:101C0000100FFAD070471022F74B1A60F74AC2F84B
:101C1000100200BFF64A126812F0100FFAD010221C
:101C2000F14B1A60F14AC2F8101200BFF04A126874
:101C300012F0100FFAD0704710B504460B46102072
:101C4000E94908602046FFF7C9FF4FF4A06141EA67
:101C50000040E649C1F8100200BFE548006810F0F6
:101C6000100FFAD01020E0490860E048C0F81032A8
:101C700000BFDF48006810F0100FFAD010BD014619
:101C80003020D94A1060D948C0F8101200BFD84897
:101C9000006810F0200FFAD0D6480068704710B5E1
:101CA000044644F080004FF4807242EA0041D2487A
:101CB000FFF7A9FF44F080004FF4807242EA004130
:101CC000CD48FFF7A0FF10BD0021CC4A11604FF0B6
:101CD0004001C64AC2F84C124FF00101C74A1160D8
:101CE0004FF04001C14AC2F84C1200BFC049096818
:101CF00011F4807FFAD04FF0FF31C14A11606FF0CC
:101D00004001BA4AC2F834124FF0FF31B64A1160AE
:101D10004FF00D01A2F104021160BA49BA4A1160F4
:101D20004FF0FF31B94A1160B94A11604FF04001DC
:101D3000A2F1040211604FF0FF31B64A1160B64AB9
:101D40001160B64A11604FF00701B54A11604FF0BB
:101D50000001B44A11605160084607E00021B24A10
:101D600042F82010B14A42F82010401C2028F5D338
:101D7000704700B5AE48406820F07050AC494860EC
:101D80000846406840F0A05048600846C068A9492D
:101D90000840A749C8600846C068A7490843A44945
:101DA000C8600846006920F44020086108460069C0
:101DB00040F480200861A148006840F00040A0493C
:101DC000C1F8C4004FF012009E49086000BF9E4851
:101DD000006800F012001228F9D11820012181407A
:101DE00042094FF0E02303EB8202C2F8001100BF6A
:101DF000FFF76AFF0020FFF752FF00BD10B5044651
:101E00000CB1012000E000204FF4807242EA004152
:101E10008E48FFF7F8FE10BD7047704700B58C483C
:101E2000007810F0020F03D08A498848FFF7EBFED4
:101E300000BD704710B504460CB1012000E0002041
:101E40004FF4807242EA00418348FFF7DCFE032032
:101E50008249086000BF6648006810F4807FFAD0AD
:101E60004FF480706049086010BD10B50346987843
:101E7000FFF7B4FE0446794800684FF0010101FA0B
:101E800004F140EA01005949C1F844025B4804608A
:101E90009888C1F84C0200BF5548006810F4807F54
:101EA000FAD04FF480705049086010BD704730B5CB
:101EB00004462046FFF792FE694941EA004589132E
:101EC0002846FFF7A0FE30BD30B504462046FFF798
:101ED00085FE634941EA004562492846FFF793FEC3
:101EE00030BD30B504462046FFF778FE5C4941EA34
:101EF000004589132846FFF786FE30BD30B50446FD
:101F00002046FFF76BFE564941EA004551492846F5
:101F1000FFF779FE30BD30B504462046FFF75EFE80
:101F20004F4941EA004589132846FFF76CFE30BD52
:101F300010B504464C492046FFF77EFE10BDF0B5B3
:101F400005460F4605F00F00012101EB80004749CF
:101F5000086000BF4648046814F4006FFAD0C4F368
:101F60000904002605E02148D0F8180238603F1D1A
:101F7000761CE01CB6EB900FF5D300203B490860BF
:101F800041F2482040FA05F010F0010F03D1364924
:101F90002846FFF751FE2046F0BDF0B506460D4637
:101FA000144606F00F00022101EB80002F49086063
:101FB0000E48C0F824424FF0000706E028682D497B
:101FC000086005F1040507F1010704F10300B7EB10
:101FD000900FF3D300202549086027493046FFF7CA
:101FE0002BFE2046F0BD000008C2005000C000508B
:101FF00000C2005014C200500005D00048C200507A
:1020000038C200500000082080C2005054C2005066
:102010008CC20050A4C20050B0C20050BCC20050DC
:1020200094C2005030000010D4000010D8040010FA
:1020300000C00240CFFFFFCF10000020C4C00F40FF
:1020400000C00F40F4CF0050F8CF00500005FE0054
:1020500058000010000101000005D80044C20050E3
:1020600000054000000120000005F20028C20050D9
:1020700020C200501CC200500005FA002DE9F043B8
:1020800081460C46207BC0F340054846FFF7A6FD7D
:1020900080460027E64850F8283017E01F46207B8E
:1020A00010F0010F11D1E34850F82500381AE24929
:1020B00051F82510B0FBF1F6E04850F82500012159
:1020C000B1408843DD4941F825003B68002BE5D14C
:1020D000002608E0D94850F825100120B040014200
:1020E00000D102E0761C202EF4D300BF202E02D1B6
:1020F0000020BDE8F083D14850F825100120B04001
:102100000143CE4840F82510CA4850F82500CA4976
:1021100051F8251006FB01034FB1207B10F0010F91
:1021200005D03B60786840F00400786005E0C04866
:1021300040F82830C24840F82830002001C3207BF6
:10214000C0F38000217BC1F3400140EA0110E18827
:1021500040EA4110A18840EA014001C3206801C360
:10216000A089C0F30720000201C30DB1A068186068
:102170000120BEE700B503461846FFF72FFD0121F9
:102180008140B048016000BD00B503461846FFF726
:1021900025FD01218140AC48016000BD70B50646B7
:1021A0003046FFF71BFDA64951F820400CB900202E
:1021B00070BDE568C5F343000A2812D2DFE800F0DD
:1021C0000507090B111111110D0F0120F0E7022075
:1021D000EEE70320ECE70520EAE70420E8E7062025
:1021E000E6E74FF6FF70E3E730B505462846FFF710
:1021F000F5FC934951F8203013B94FF0FF3030BD52
:102200009C682046FBE730B505462846FFF7E6FC0C
:102210008B4951F8203013B94FF0FF3030BDDC68E6
:10222000200CFBE700B58948FFF7E0FC8848FFF782
:1022300026FD03468648FFF722FD43EA00231846A1
:1022400000BD2DE9F0478348076817F0080F1CD040
:102250000820814908608148FFF7C8FC8048FFF7E3
:102260000EFD064616F0100F03D0FFF72DFDFFF709
:1022700045FC16F0080F07D016F0040F02D0FFF748
:10228000CBFD01E0FFF7C9FDD0E017F0010F01D051
:10229000FFF738FC17F0040F49D04FF000097148E0
:1022A000D0F8308200243CE0C84500D13BE001205A
:1022B000A04010EA080F32D00120A04040EA0909EE
:1022C00065080120A0406849086000BF61480068B7
:1022D00010F0200FFAD06548066814F0010F15D1F0
:1022E00054B916F0040F07D06148006820B1604867
:1022F00001680120884713E05D4850F8250070B15F
:102300005B4850F825100220884708E0584850F8EC
:10231000250020B1564850F825100320884700BFFB
:10232000641C202CC0D300BF04204B4908605148D6
:10233000006810F0010F24D04F4806684FF00204E7
:102340001BE00120A040304216D0650814F0010FB8
:1023500009D1474850F8250070B1454850F825107C
:102360000820884708E0424850F8250020B140483E
:1023700050F8251009208847641C202CE1D33F48E1
:1023800006603C48006810F0020F24D03C48066804
:102390004FF002041BE00120A040304216D0650837
:1023A00014F0010F09D1324850F8250070B13048BF
:1023B00050F825100A20884708E02D4850F82500DD
:1023C00020B12B4850F825100B208847641C202C86
:1023D000E1D32C4806602748006810F0040F24D091
:1023E000294806684FF002041BE00120A04030425B
:1023F00016D0650814F0010F09D11D4850F82500CA
:1024000070B11B4850F825100C20884708E0184888
:1024100050F8250020B1164850F825100D208847A7
:10242000641C202CE1D31948066000BFBDE8F0878A
:10243000D4000010AC560000B4560000300000106C
:10244000D804001088C200508CC200500005F5006E
:102450000002F50000C2005008C200500005FE0056
:102460000002FE0000C0005038C2005014C20050EC
:102470006C56000090C20050A0C20050A4C2005090
:10248000ACC20050B0C20050B8C20050BCC2005034
:102490008149096841F080717F4A116000BF7E491F
:1024A000486810F0004FFAD0096821F080717A4A2C
:1024B0001160F82101EA1021082202EAD012114429
:1024C000764A1180704770B575480078002836D07C
:1024D000744800687449098830F9114073480088CD
:1024E00071490988401AC0F30905B5F5607F04D128
:1024F0006D480088401C6C490880802D04D96A48CA
:102500000088401C6849088067480088C0F30900BB
:1025100065490880002C05DA65480068001B64499D
:10252000086004E06248006820446149086061482E
:1025300000684443241404F50044A4B201E04FF4BD
:1025400000445D48007808B14FF400444FF6C07075
:1025500020405A4908605A4801880068401C584A7F
:1025600010608805800D1AD1FFF792FF554800884A
:10257000B0F5004F03D100204E49086006E05148F5
:1025800000884649098848434A4908604848006825
:10259000040D002046490860072C00DD0724FEF7E3
:1025A00022FF01280ED100F06EF8182000F06BF821
:1025B0000020FFF723FCFFF787FB0120FFF71EFC3D
:1025C000FFF708FA01204FF04021086070BD1CB5EC
:1025D000FDF7FBFF3C48406820F470103A49486022
:1025E0000846406840F4101048603848006840F4DD
:1025F00080503749C1F8C4003648274908604FF475
:1026000000402E49086034480068C0F38100019002
:10261000019830B1012809D002280BD003280ED030
:1026200000BF2E480068800800900DE02B4800682D
:10263000009009E0294800684008009004E027481D
:102640000068C008009000BF00BF4FF4FA41009836
:10265000B0FBF1F0401E4FF040218861032048613B
:102660000120486000BF0121814042094FF0E02372
:1026700003EB8202C2F8001100BFFFF77AFB0120D2
:10268000FFF7BCFB1CBD00F01F0201219140144A62
:10269000430942F823107047004003404E000010E9
:1026A0004C0000103C000010480000104A000010D0
:1026B00050000010440000104000001000C008400E
:1026C000540000108000001000C00240C4C00F4041
:1026D00000C00F40040E2000A8C10F4004000010ED
:1026E00080E100E00020EB490880EB490870EB49ED
:1026F00008704FF00110EA4908600020E9490860BD
:10270000E9490860704710B5E8490020FFF717FC59
:1027100010BD10B5E6488088402801DD402401E066
:10272000E3488488E248224601688020FFF735FCB0
:102730000446DF4800682044DD4908600846808878
:10274000001B888010BD10B5D94801680020FFF734
:10275000F6FB0446D64800682044D5490860084680
:102760008088001B888010BD10B500221146802093
:10277000FFF713FC10BD10B5CE490020FFF7DFFBBB
:1027800010BD10B50446082C6FD2DFE804F06E04CB
:10279000F2F16E6EF0EFFFF7B6FFC4490978C80991
:1027A000FFF784FBC148C088C1498880BF480078D2
:1027B000C0F3411010B1012879D190E0BB484078B6
:1027C0000C2875D2DFE800F0060D8815881D333A15
:1027D00041555C8101F0B2F800B9E1E0FFF799FFE3
:1027E0007BE0002001F00AF900B9D9E0FFF7BCFF57
:1027F00073E0012001F002F900B9D1E0FFF7B4FF66
:102800006BE000BFA948007810F01F0F06D1A74861
:10281000807840F08000A049087001E0002001E0CD
:1028200000BF012000B9BBE0FFF79EFF55E001F0BB
:1028300029F800B9B4E0FFF76CFF4EE00020FFF785
:102840005DFB00209A49888047E000BF97480078E8
:1028500010F01F0F03D191489549086001E0002056
:1028600001E000BF012008B99AE010E1FFF751FF35
:1028700033E001F039F900B992E0FFF775FF2CE081
:1028800000BF8A48007800F01F00012814D1834857
:10289000007870B18548007987490978884208DA5C
:1028A00082480079854908448149086003E076E060
:1028B00012E0002004E001E0002001E000BF012060
:1028C00000B96DE0FFF725FF07E001F0E7F900B977
:1028D00066E0FFF749FF00E062E000BF67E0734891
:1028E000007810F01F0004D0012803D0022854D132
:1028F0002DE055E06D48007938B16C480079012829
:1029000003D06A480079022820D16848407882289C
:102910000BD004DC012814D0812816D104E08328D0
:1029200004D0842811D102E000BF00BF00BF00F036
:10293000C7F828B15F485E490860FFF7EAFE2DE05E
:1029400003E05C485A49086028E000BF28E0574887
:10295000407882280FD004DC012818D081281AD1B1
:1029600008E0832808D0842815D106E08BE086E0B3
:102970006CE01EE000BF00BF00BF00F009F928B105
:102980004C484B490860FFF7C4FE07E003E04948A4
:102990004749086002E000BF02E001E007E000BF35
:1029A0008020FFF7ABFA00204149888000BF00BFBC
:1029B0006DE03E480078C00945D13D48808880B32D
:1029C000FFF7C1FE3A48808858BB38480078C0F30A
:1029D000411010B1012834D100E0E1E7334800781C
:1029E00010F01F0004D0012803D0022827D119E0DD
:1029F000D6E72E48007938B12C480079012803D059
:102A00002A48007902280BD128484078012806D1AD
:102A100000F096F810B1FFF7A7FE11E000BF00BF6D
:102A2000BEE712E021484078012806D100F0B2F854
:102A300010B1FFF799FE03E000BF00BFB0E7AFE7BA
:102A400000E0ADE701E0FFF796FE20E017480078D0
:102A50000121B1EBD01F02D1FFF75BFE0EE00E4863
:102A6000007810F0800F09D00B48007800F07F004C
:102A70000949087008460078FFF711F907E00020BF
:102A8000FFF749FA03E08020FFF745FA00BF00BFD7
:102A900010BD0000580000105A0000105B0000102C
:102AA0005C0000106000001064000010780000104E
:102AB0007000001054010010680000106900001040
:102AC00035488088B0F5007F38D13348807890BB96
:102AD0003148C078012802D002282ED10AE02E48C1
:102AE0004078812805D12D4800782D4908700120B3
:102AF000704722E028484078812806D082280AD0F2
:102B000083280DD0842817D110E026480088244956
:102B100008800120ECE70020214908800120E7E738
:102B20004FF480701E4908800120E1E704201C4911
:102B300008800120DCE701E000BF00BF0020D7E7EC
:102B400015488088B0F5007F20D113488078E8B917
:102B50001148C078012802D0022816D10AE00E4898
:102B60004078012805D10E4800780C4908700120F2
:102B700070470AE008484078012805D108480088D5
:102B8000084908800120F3E700BF00BF0020EFE7FD
:102B900000207047002070477800001040000010AF
:102BA0005401001080000010800400BF0100A0F15B
:102BB0000100FBD1704708B50024CCE2FEF713FCFE
:102BC000FB490860002C7DD14FF6FF70FEF728FA14
:102BD0000020FEF722FAF7A3012200210846FEF7A3
:102BE000ACFAFAA3012200211046FEF7A6FAFE482D
:102BF0001D231E22C82100901046FEF712FBFA4842
:102C00001D231E22C82100908C20FEF70AFBF648E7
:102C10001D231E22C8210090F020FEF702FBFEF7C4
:102C2000E2FBE349086008460068102808D1EF4835
:102C30000068032804D0ED480068401CEB49086098
:102C4000DB480068402808D1E8480068012804D023
:102C5000E6480068401EE5490860E448006801282D
:102C600040D1E3481D231E22642100908C20FEF7F2
:102C7000D8FAE0481D231E22642100901046FEF77A
:102C8000D0FACB48006801282CD1D9481D231E2238
:102C9000C82100901046FEF7C4FAD3481D231E2217
:102CA000642100901046FEF7BCFA3220FFF77CFF4B
:102CB000D1A3012200210620FEF73FFA0020D249CD
:102CC000086000E0ADE06420FFF76EFF4FF6FF7094
:102CD000FEF7A6F901210620FEF743FA0020FEF7D1
:102CE0009FF9641CC1480068022846D1C0481D23D2
:102CF0001E22642100901046FEF793FABC481D2363
:102D00001E2264210090F020FEF78BFAB9481D23A3
:102D10001E22642100908C20FEF783FAA4480068EC
:102D200001282AD1B2481D231E22C82100908C20E0
:102D3000FEF777FAAC481D231E22642100908C20F8
:102D4000FEF76FFA3220FFF72FFFABA3012200211D
:102D50000620FEF7F2F90020AB4908606420FFF777
:102D600023FF4FF6FF70FEF75BF901210620FEF707
:102D7000F8F90020FEF754F9641C9C480068032809
:102D80004FD19B481D231E22642100908C20FEF70A
:102D900048FA98481D231E2264210090F020FEF777
:102DA00040FA8348006801283BD191481D231E2228
:102DB000C8210090F020FEF734FA94481D231E220B
:102DC000C8210090F020FEF72CFA87481D231E2210
:102DD00064210090F020FEF724FA3220FFF7E4FE91
:102DE0004FF6FF70FEF71FF989A30122002106208C
:102DF000FEF7A3F98A480068401C89490860012051
:102E0000814908606420FFF7CFFE4FF6FF70FEF7A0
:102E100007F901210620FEF7A4F90020FEF700F9CA
:102E2000641C012C7ED14FF6FF70FEF7F9F80020EC
:102E3000FEF7F3F87BA3012200210846FEF77DF997
:102E40007DA3012200211046FEF777F966481D2375
:102E50001E22C82100901046FEF7E3F962481D23A8
:102E60001E22C82100908C20FEF7DBF95E481D234E
:102E70001E22C8210090F020FEF7D3F9FEF7B3FA26
:102E80004B49086008460068102808D15748006878
:102E9000032804D055480068401C54490860444841
:102EA0000068402808D151480068012804D04F48E4
:102EB0000068401E4D4908604C480068012856D102
:102EC0004B481D231E22642100908C20FEF7A9F997
:102ED00048481D231E22642100901046FEF7A1F9E8
:102EE00033480068012842D141481D231E22C821D1
:102EF00000901046FEF795F944481D231E22C82174
:102F000000901046FEF78DF937481D231E226421DC
:102F100000901046FEF785F93220FFF745FE4FF688
:102F2000FF7000E0F9E0FEF77EF801203649091D48
:102F3000086037A3012200210620FEF7FEF838487A
:102F40000068401C3649086001202F49091D0860AF
:102F50006420FFF729FE4FF6FF70FEF761F80121AC
:102F60000620FEF7FEF80020FEF75AF8641C1F4802
:102F7000006802286ED11E481D231E226421009085
:102F80001046FEF74EF91A481D231E2264210090B8
:102F9000F020FEF746F917481D231E2264210090F9
:102FA0008C20FEF73EF902480068012878D152E0F3
:102FB0009000001020202020090909526F756E64CE
:102FC000203120202009090909090900202020209A
:102FD0000909095069636B20412043757020202046
:102FE0000909090909000000323A04008C000010A8
:102FF000C37300002D620000202020204C6F7365F9
:103000007220202000000000F0063823A0570000A6
:103010002020202057696E6E65722120202000003C
:103020008400001020202020526F756E6420322012
:103030002020090909090900202020205069636B1C
:103040002041204375702020200909090909090938
:103050000900000024E045481D231E22C8210090DD
:103060008C20FEF7DEF842481D231E2264210090CA
:103070008C20FEF7D6F83220FFF796FDAFF28803DA
:10308000012200210620FEF758F83220FFF78CFDC0
:10309000641C0020FDF7C4FF4FF6FF70FDF7BDFF75
:1030A00034480068032838D130481D231E2264218B
:1030B00000908C20FEF7B5F82F481D231E226421B6
:1030C0000090F020FEF7ADF82C480068012824D1CC
:1030D00026481D231E22C8210090F020FEF7A1F8EB
:1030E00023481D231E2264210090F020FEF799F84A
:1030F0003220FFF759FDAFF2001301220021062014
:10310000FEF71BF83220FFF74FFD641C0020FDF78F
:1031100087FF4FF6FF70FDF780FF022C1BD14FF6A3
:10312000FF70FDF780FF4FF6FF70FDF776FF14A3E9
:10313000012211460420FEF700F800201349086020
:10314000091D08603220FFF72FFD0C480068012898
:1031500001D1FEF739FA31E5FEF7D4F800200B492A
:103160000860091D0860FFF726FD0000C37300001A
:10317000323A04008C0000102D6200009000001014
:103180002047414D45204F5645522000F006382338
:10319000800400BF0100A0F10100FBD1704738B5E9
:1031A000FEF7B0F87EE200240025FEF71CF9FE4988
:1031B00008600846006810282ED1FC480068B0F569
:1031C000917F29D0F94800680A30F8490860F8482A
:1031D00000680A30F6490860F64800680A30F54988
:1031E0000860F5481D231E22C8210090F1480068A0
:1031F000FEF717F8F0481D231E22C8210090EC4866
:103200000068FEF70EF8ED481D231E22C82100902D
:10321000E6480068FEF705F8E348006840282DD12D
:10322000E2480068072829D0E04800680A38DF49EA
:103230000860DF4800680A38DD490860DD4800683A
:103240000A38DC490860DC481D231E22C821009092
:10325000D8480068FDF7E5FFD7481D231E22C82186
:103260000090D3480068FDF7DCFFD4481D231E22E0
:10327000C8210090CD480068FDF7D3FFD048006812
:10328000D04909680844CE490860CF480068CD4954
:1032900009680844CC4908600520FFF779FFC64853
:1032A0001D231E220090C8480168C8480068FDF729
:1032B000B8FFC7481E2314220090C1480168C348C4
:1032C0000068FDF7AEFFC3480068C34909680844B9
:1032D000C0490860C1480068BF4909680844BF493F
:1032E00008600520FFF754FFB3481D231E220090FD
:1032F000BA480168BA480068FDF793FFB9481E2331
:1033000014220090B3480168B5480068FDF789FFB2
:10331000B3480068AD49096888420FD1FCF726FF21
:103320004FF4A07190FBF1F201FB1200AC49086070
:103330000A20A84908600020A8490860A048006841
:10334000A4287DDBA1480068984909688842F8DB19
:103350009E4801689548006800F5917081426FDCD5
:10336000FCF704FF4FF4A07190FBF1F201FB120097
:10337000964908600A209249086000209249086036
:1033800090480068401C8F49086097480068401CBE
:103390009549086008460068012801D193490860F2
:1033A00091480068022803D101209049091D086056
:1033B0008D480068032803D101208C490C31086036
:1033C00089480068042802D101208949086086489C
:1033D0000068052803D101208549091D086082483D
:1033E0000068062803D101208149083108607E4821
:1033F0000068072803D101207D490C3108607A4814
:103400000068082830D10120794910310860002077
:1034100076490860091D086074490C3108607449D8
:103420000860091D0860091D0860091D0860091D64
:1034300008600A206249086000206349086000E0D3
:1034400018E07820594908606E20594908608C209E
:103450005849086000206449086002205949086002
:1034600003205D49086001244FF6FF70FDF7DBFD86
:10347000FFF795FE52480068A42838DB53480068DF
:103480004A490968884232D0504801684748006874
:1034900000F5917081422AD0002054490860091D2E
:1034A000086052490C31086051490860091D0860E4
:1034B000091D0860091D0860091D08600A204049AF
:1034C00008600020404908607820384908606E2074
:1034D000374908608C20374908600020424908605D
:1034E00002203849086003203B490860012539481B
:1034F0000068A42838DD3A4800682C4909688842E9
:1035000032DD374801682948006800F59170814232
:103510002ADA002035490860091D086033490C315A
:10352000086033490860091D0860091D0860091D0D
:103530000860091D08600A2021490860002022490E
:1035400008607820194908606E20194908608C20AD
:1035500018490860002024490860022019490860C1
:1035600003201D49086001251A480068A42858DD79
:103570001B4800680D490968884252D01848016804
:103580000A48006800F5917081424AD00A480090CC
:1035900012480068104A1268104400F10A011D2305
:1035A0001E220F48006825E0D00000109C0000108B
:1035B000A0000010A4000010C37300006E4B0400B4
:1035C000B0000010C4000010AC000010A8000010F3
:1035D000BA6C0000BC000010C8000010B800001059
:1035E000B400001065440400C0000010F006382349
:1035F000880A3823FDF715FEFCF7B8FD4FF4A071DB
:1036000090FBF1F201FB1200284908600A202849CA
:10361000086000202749086027480068401C2649A8
:103620000860012C1DD125A3012200210620FDF7F1
:1036300084FD002025490860091D086023490C31DC
:10364000086023490860091D0860091D0860091DFC
:103650000860091D08606420FFF79AFDFDF7B4FFBC
:1036600021E0012D1DD1002018490860091D0860C6
:1036700016490C31086016490860091D0860091DCB
:103680000860091D0860091D086012A301220021BD
:103690000620FDF752FD6420FFF77AFDFDF794FF49
:1036A00001E000BF7FE500BF38BD0000B40000109E
:1036B000BC000010B8000010C8000010202020201E
:1036C00057696E6E6572212020200000F0063823B5
:1036D000880A38232020202047414D4520204F567E
:1036E000455221202020000053EA020C00F069809E
:1036F0002DE9F04B4FF00006002B1FBFB3FA83F506
:1037000003FA05F424FA05F65E4012BF1643B2FA36
:1037100082F502FA05F4C5F120051EBF22FA05FC68
:1037200044EA0C04203556EA044C4FEA144418BF0E
:10373000641C4FF000084FF00009904271EB030C3D
:1037400039D3002919BFB1FA81F701FA07F6B0FAA7
:1037500080F700FA07F6C7F120071EBF20FA07FC22
:1037600046EA0C062037B6FBF4FCA7EB0507103F32
:1037700007F01F0BCBF120060CFA0BFB2CFA06F618
:1037800044BFB3460026202FA4BF5E464FF0000B77
:103790005BEA060C08BF4FF0010B19EB0B09ABFB02
:1037A000027C48EB0608C01B06FB02CC0BFB03CCDB
:1037B00071EB0C01C1E70B46024641464846BDE8A5
:1037C000F08B13B54FF000004FF00001AFF3008015
:1037D000BDE81C40704700000B4910B5A1F17C0208
:1037E0000A4CC2E93712372106E000EB104342F8D9
:1037F0002130074B00FB03400B1EA1F10101F4DC5B
:1038000010BD0120E8E7000010020010E119D666A3
:10381000CD0D0100704770477047754600F028F8DD
:10382000AE4605006946534620F00700854618B0AD
:1038300020B5FCF7C3FCBDE820404FF000064FF078
:1038400000074FF000084FF0000B21F00701AC46D5
:10385000ACE8C009ACE8C009ACE8C009ACE8C009F4
:103860008D4670470446AFF300802046FCF777FC96
:10387000004870477802001001491820ABBEFEE7EF
:103880002600020010B52848007810F01F0002D072
:1038900001283ED13AE02448C078012804D002280B
:1038A00007D003282ED118E02048214C2060122395
:1038B0002AE02049002204E0087808B14888014441
:1038C000521C194880789042F6D1087808B9002037
:1038D00010BD174801604B8816E01749002204E02C
:1038E000087808B108780144521C0F48807890424B
:1038F000F6D1087808B90020EAE70D4801600068B1
:10390000037801E00020E3E700BF04E000BF0020EF
:10391000DEE70020DCE700BF05488088984201D937
:10392000034CA3800120D3E778000010BC560000B0
:1039300070000010CE5600003C5700002748007869
:1039400010F01F0004D0012806D0022841D116E053
:103950002348244B18603EE02348007860B11F489C
:103960000079224B1B78984206DA0020204B188001
:1039700018461C4B186001E0002070472BE01748E8
:10398000007900F08F0111F0800F05D001F00F03D6
:103990004FF48030984001E00120884002461248F0
:1039A000007810B911F00F0F10D1124800681042C2
:1039B0000CD011480068104201D0012000E0002026
:1039C0000B4B18801846074B186001E00020D4E725
:1039D00001E00020D1E700BF0120CEE77800001011
:1039E00058000010700000105B000010680000100C
:1039F000540100105C0000106000001070B5064615
:103A00003348007810F01F0004D001281DD0022890
:103A100058D11CE02E484088012813D146B1FEF74A
:103A200008FA2C48008840F002002A4908800BE080
:103A30000020FEF7FEF92748008820F00200254903
:103A4000088001E0002070BD3EE00020FBE7204838
:103A5000007900F08F0414F0800F05D004F00F01FE
:103A60004FF48030884001E00120A04005461A480C
:103A7000007820B314F00F0F21D0184800682842B6
:103A80001DD013484088C0B946B12046FEF736FA2B
:103A90001348006828431249086012E01148006882
:103AA000284201D00120CEE72046FEF734FA0C4828
:103AB0000068A8430A49086003E00020C3E700202B
:103AC000C1E701E00020BEE700BF0120BBE7000026
:103AD00078000010580000105B0000105C0000101F
:103AE00060000010640000102DE9F04100266248DB
:103AF000007810F01F0F7DD15F48807800287AD0C1
:103B00005E4D7EE06878022804D0042851D0052854
:103B100073D150E0687958498978884245D1564830
:103B2000807857490870287956490870002403E0C6
:103B3000002055490855641C042CF9D3012414E0D5
:103B40000120A04051490968084202D02046FEF7F2
:103B5000BBF94FF48030A0404C490968084203D0BB
:103B600044F08000FEF7B0F9641C102CE8D34FF04D
:103B70000110464908600020454908604549086031
:103B80000120FEF757F9E87910F0400F06D04248BF
:103B9000008840F001004049088009E03E48008864
:103BA00020F001003C49088002E06888054428E0D4
:103BB00023E0EE7821E0E6B9A87800F08F0414F055
:103BC000800F05D004F00F014FF48030884001E0F1
:103BD0000120A04007462D48006838432B49086063
:103BE0002846FEF742F92046FEF761F92046FEF727
:103BF00078F901E03BE009E000BF00BF2878054408
:103C000000BF287800287FF47DAF26E000201C4903
:103C10000870012414E00120A0401C4909680842F2
:103C200002D02046FEF750F94FF48030A0401749EB
:103C30000968084203D044F08000FEF745F9641C8F
:103C4000102CE8D34FF001101049086000201049F3
:103C5000086010490860FEF7EDF8074880780849C9
:103C60000978884202D00020BDE8F08101E0002000
:103C7000FAE700BF0120F7E778000010CE560000F9
:103C80005B00001068000010690000105C0000106C
:103C90006000001064000010580000102DE9F05F73
:103CA0000027B846BB46B9464248007800F01F00DE
:103CB000012879D14048007810B90020BDE8F09F74
:103CC0004FF0000A3D4C6AE06078022804D00428D6
:103CD0000BD005285FD11EE060793749097888420A
:103CE00002D0608804445AE055E0A77894F8038035
:103CF0004FF000092F480079B8420BD12D48807849
:103D0000404507D14FF0010A2D4810F807B0014691
:103D100001F807803FE027480079B8423AD1A078FF
:103D200000F08F0616F0800F05D006F00F014FF45B
:103D30008030884001E00120B04005461D48807871
:103D4000404515D11F48006828431E4908601E4899
:103D50000068A8431C4908602046FEF786F83046F4
:103D6000FEF7A5F83046FEF7BCF849EA050911E070
:103D7000D8450FD119EA050F0CD112480068A843A5
:103D80001049086010480068A8430F490860304691
:103D9000FEF79AF800BF00BF2078044400BF2078E7
:103DA000002891D102E0FFE7002087E700BF5046DE
:103DB00084E70000780000105B000010CE56000081
:103DC000690000105C00001060000010000000009E
:103DD0000000000004040404040004000A0A0A00AD
:103DE000000000000A0A1F0A1F0A0A00041E050E2E
:103DF000140F040003130804021918000205050239
:103E0000150916000C0C0402000000000804020250
:103E10000204080002040808080402000004150E49
:103E20000E1504000004041F04040000000000003C
:103E30000C0C04020000001F000000000000000045
:103E4000000C0C0000100804020100000E111315F4
:103E500019110E000406040404040E000E11100EC5
:103E600001011F001F10080C10110E00080C0A0998
:103E70001F0808001F010F1010110E001C02010F77
:103E800011110E001F101008040201000E11110E76
:103E900011110E000E11111E100807000000040081
:103EA00004000000000004000404020010080402E2
:103EB0000408100000001F001F000000020408108A
:103EC000080402000E11100C040004000E11151D50
:103ED0000D011E00040A11111F1111000F11110F05
:103EE00011110F000E11010101110E000F1111111E
:103EF00011110F001F01010F01011F001F01010F10
:103F0000010101001E11010119111E001111111FE3
:103F1000111111000E04040404040E001C0808080A
:103F20000809060011090503050911000101010135
:103F300001011F00111B1515151111001111131589
:103F4000191111000E11111111110E000F11110F85
:103F5000010101000E111111150916000F11110FA9
:103F6000050911000E11010E10110E001F15040499
:103F7000040404001111111111110E00111111117D
:103F8000110A04001111111515150A0011110A0466
:103F90000A11110011110A04040404001F10080E74
:103FA00002011F001E02020202021E0000010204A2
:103FB000081000001E10101010101E00040A11003E
:103FC000000000000000000000001F0006060408BA
:103FD00000000000000006080E091E0001010D137C
:103FE00011130D0000000E1101110E001010161912
:103FF0001119160000000E111F010E000814040E06
:104000000404040000000E191916100E01010D130E
:10401000111111000400060404040E000800080831
:104020000809060001010905030509000604040446
:1040300004040E0000000B151515150000000D13EB
:104040001111110000000E1111110E0000000D13CE
:10405000130D0101000016191916101000000D13A0
:104060000101010000001E010E100F0004041F04D6
:10407000041408000000111111191600000011119C
:10408000110A04000000111115150A000000110AA0
:10409000040A1100000011111E10110E00001F086B
:1040A00004021F00080404020404080004040400BD
:1040B00004040400020404080404020002150800B9
:1040C00000000000000000000000000000000C12D2
:1040D000120C000000000C1E1E0C000000001E123E
:1040E000121E000000001E1E1E1E000000000C0C10
:1040F000121E000000000C0C1E1E000000001E120C
:104100000C0C000000001E1E0C0C00000000181615
:10411000161800000000181E1E1800000000061AE5
:104120001A0600000000061E1E06000000000C1209
:10413000120C000000000C1E1E0C000000001E12DD
:10414000121E000000001E1E1E1E000000000000C7
:10415000000000000000000000000000000000005F
:10416000000000000000000000000000000000004F
:1041700000000000000000000000000000008001BE
:104180008001800180018001800180018001800127
:104190008001800180018001000000008001800119
:1041A000000000000000000000000000000000000F
:1041B000CC00CC00CC00CC00CC00CC000000000037
:1041C00000000000000000000000000000000000EF
:1041D00000000000000000000000000000000000DF
:1041E0000000000000000000600C600C600C300655
:1041F0003006FE1FFE1F300638071803FE1FFE1F85
:10420000180318038C018C018C0100000000800051
:10421000E003F80F9C0E8C1C8C188C009800F801A1
:10422000E007800E801C8C188C189C18B80CF00FBE
:10423000E00380008000000000000000000000009B
:1042400000000E181B0C110C1106110611031103AE
:104250009B018E01C038C06C6044604430443044DF
:104260001844186C0C380000000000000000E00149
:10427000F0033807180618063003F001F000F800C4
:104280009C310E33061E061C061C063FFC73F021F3
:10429000000000000000000000000000000000001E
:1042A0000C000C000C000C000C000C0000000000C6
:1042B00000000000000000000000000000000000FE
:1042C00000000000000000000000000000000002EC
:1042D00000038001C000C0006000600030003000BA
:1042E00030003000300030003000300060006000EE
:1042F000C000C00080010003000200000000200098
:104300006000C00080018001000300030006000679
:104310000006000600060006000600060003000373
:1043200080018001C000600020000000000000004B
:104330000000000000000000C000C000D806F80720
:10434000E00130033807000000000000000000001A
:10435000000000000000000000000000000000005D
:104360000000000000000000800180018001800149
:104370008001FC3FFC3F80018001800180018001C1
:10438000000000000000000000000000000000002D
:10439000000000000000000000000000000000001D
:1043A000000000000000000000000000000080018C
:1043B00080010001000180000000000000000000FA
:1043C00000000000000000000000000000000000ED
:1043D00000000000E007E00700000000000000000F
:1043E00000000000000000000000000000000000CD
:1043F00000000000000000000000000000000000BD
:104400000000000000000000000000000000C000EC
:10441000C000000000000000000000000000000CD0
:10442000000C0006000600060003000300038003E2
:10443000800180018001C000C000C00060006000F9
:104440000000000000000000000000000000E00389
:10445000F007380E180C0C180C180C180C180C1847
:104460000C180C180C180C18180C380EF007E00378
:10447000000000000000000000000000000000013B
:104480008001C001F0019801880180018001800154
:104490008001800180018001800180018001800114
:1044A0000000000000000000000000000000E00329
:1044B000F80F180C0C180C1800180018000C000647
:1044C00000038001C000600030001800FC1FFC1FCA
:1044D0000000000000000000000000000000E001FB
:1044E000F807180E0C0C0C0C000C0006C003C007DB
:1044F000000C001800180C180C18180CF807E00332
:104500000000000000000000000000000000000C9F
:10451000000E000F000F800DC00C600C600C300C02
:10452000180C0C0CFC3FFC3F000C000C000C000CA9
:104530000000000000000000000000000000F80F74
:10454000F80F180018000C00EC03FC071C0E001CF0
:104550000018001800180C181C0C180EF807E003BF
:104560000000000000000000000000000000C00784
:10457000F00F381C181818000C00CC03EC0F3C0E80
:104580001C1C0C180C180C18181C380EF007E00333
:104590000000000000000000000000000000FC1F00
:1045A000FC1F000C00060006000380038001C00110
:1045B000C000E0006000600070003000300030009B
:1045C0000000000000000000000000000000E00308
:1045D000F007380E180C180C180C3806F007F00706
:1045E000180C0C180C180C180C18380CF80FE003E9
:1045F0000000000000000000000000000000E003D8
:10460000F007380E1C0C0C180C180C181C1C381E4B
:10461000F81BE0190018000C000C1C0EF807F00144
:10462000000000000000000000000000000000008A
:104630000000000000000000800180010000000078
:104640000000000000000000000000008001800168
:10465000000000000000000000000000000000005A
:104660000000000000000000800180010000000048
:104670000000000000000000000000008001800138
:1046800000010001800000000000000000000000A8
:104690000000000000000000000000000010001CEE
:1046A000800FE003F8001800F800E003800F001C02
:1046B00000100000000000000000000000000000EA
:1046C000000000000000000000000000F81F0000D3
:1046D00000000000F81F00000000000000000000C3
:1046E00000000000000000000000000000000000CA
:1046F000000000000000000000000000080038007A
:10470000F001C007001F0018001FC007F0013800AB
:104710000800000000000000000000000000E003AE
:10472000F80F180C0C180C180018000C00060003E9
:104730008001C000C000C00000000000C000C00038
:104740000000000000000000000000000000000069
:10475000E00718180420C229224A114409440944D8
:10476000094409221113E20C024004201818E00742
:1047700000000000000000000000000000008003B6
:104780008003C006C006C006600C600C30183018EC
:104790003018F83FF83F1C700C600C6006C006C073
:1047A0000000000000000000000000000000FC030A
:1047B000FC0F0C0C0C180C180C180C0CFC07FC0F44
:1047C0000C180C300C300C300C300C18FC1FFC0793
:1047D0000000000000000000000000000000C00712
:1047E000F01F38381C300C7006600600060006000A
:1047F00006000600060006600C701C30F01FE00783
:104800000000000000000000000000000000FE03A7
:10481000FE0F060E06180618063006300630063063
:1048200006300630063006180618060EFE0FFE0388
:104830000000000000000000000000000000FC3F3D
:10484000FC3F0C000C000C000C000C00FC1FFC1FBB
:104850000C000C000C000C000C000C00FC3FFC3F9A
:104860000000000000000000000000000000F83F11
:10487000F83F18001800180018001800F81FF81F5B
:104880001800180018001800180018001800180068
:104890000000000000000000000000000000E00F29
:1048A000F83F3C780E6006E007C00300030003FEFB
:1048B00003FE03C007C006C00EC03CF0F83FE00F87
:1048C00000000000000000000000000000000C30AC
:1048D0000C300C300C300C300C300C30FC3FFC3FFA
:1048E0000C300C300C300C300C300C300C300C30E8
:1048F0000000000000000000000000000000800137
:10490000800180018001800180018001800180019F
:10491000800180018001800180018001800180018F
:104920000000000000000000000000000000000681
:104930000006000600060006000600060006000647
:10494000000600060006180618063807F003E00106
:104950000000000000000000000000000000063021
:104960000618060C060606038601C60066007600D9
:10497000DE008E0106030606060C061806300660E9
:10498000000000000000000000000000000018000F
:104990001800180018001800180018001800180057
:1049A000180018001800180018001800F81FF81F49
:1049B00000000000000000000000000000000EE009
:1049C0001EF01EF01EF036D836D836D836D866CC53
:1049D00066CC66CCC6C6C6C6C6C6C6C686C386C3B1
:1049E00000000000000000000000000000000C308B
:1049F0001C303C303C306C306C30CC30CC308C31A6
:104A00000C330C330C360C360C3C0C3C0C380C3094
:104A10000000000000000000000000000000E007AF
:104A2000F81F1C380E70066003C003C003C003C02B
:104A300003C003C003C006600E701C38F81FE007F7
:104A40000000000000000000000000000000FC0F5B
:104A5000FC1F0C380C300C300C300C300C18FC1FC8
:104A6000FC070C000C000C000C000C000C000C00EF
:104A70000000000000000000000000000000E0074F
:104A8000F81F1C380E70066003E003C003C003C0AB
:104A900003C003C007E006630E3F1C3CF83FE0F78D
:104AA00000C0000000000000000000000000FE0F39
:104AB000FE1F06380630063006300638FE1FFE0799
:104AC00006030606060C06180618063006300660B1
:104AD0000000000000000000000000000000E003F3
:104AE000F80F1C0C0C180C180C001C00F803E00F3D
:104AF000001E0038063006300E301C1CF80FE00790
:104B00000000000000000000000000000000FE7F28
:104B1000FE7F800180018001800180018001800191
:104B2000800180018001800180018001800180017D
:104B300000000000000000000000000000000C3039
:104B40000C300C300C300C300C300C300C300C3085
:104B50000C300C300C300C300C301818F81FE007FB
:104B600000000000000000000000000000000360E2
:104B70000630063006300C180C180C18180C180CDF
:104B8000380E30063006700760036003C001C001B4
:104B900000000000000000000000000000000360B2
:104BA000C361C361C361663366336633663366339C
:104BB00066336C1B6C1B6C1B2C1A3C1E380E380E9B
:104BC00000000000000000000000000000000FE0F6
:104BD0000C7018303018700C600EC0078003800312
:104BE000C003E006700C301C18180C300E6007E093
:104BF000000000000000000000000000000003C0F2
:104C000006600C301C383818300C6006E007C00312
:104C1000800180018001800180018001800180018C
:104C20000000000000000000000000000000FC7F09
:104C3000FC7F006000300018000C000600038001BB
:104C4000C0006000300018000C000600FE7FFE7FF0
:104C50000000000000000000000000000000E00371
:104C6000E0036000600060006000600060006000C1
:104C70006000600060006000600060006000600034
:104C8000600060006000E003E0030000000030000E
:104C90003000600060006000C000C000C000C001C3
:104CA000800180018001000300030003000600066C
:104CB0000000000000000000000000000000E00311
:104CC000E0030003000300030003000300030003EC
:104CD00000030003000300030003000300030003BC
:104CE000000300030003E003E003000000000000F5
:104CF000C001C00160036003600330063006180C79
:104D0000180C00000000000000000000000000007F
:104D10000000000000000000000000000000000093
:104D20000000000000000000000000000000000083
:104D30000000000000000000000000000000FFFF75
:104D4000FFFF0000000000000000000000000C0059
:104D50000C000C000C000C000C0000000000000017
:104D60000000000000000000000000000000000043
:104D70000000000000000000000000000000000033
:104D80000000000000000000F003F8071C0C0C0CF1
:104D9000000FF00FF80C0C0C0C0C1C0FF80FF01897
:104DA00000000000000000000000000000001800EB
:104DB0001800180018001800D803F80F380C18183D
:104DC00018181818181818181818380CF80FD803CD
:104DD00000000000000000000000000000000000D3
:104DE0000000000000000000C003F007300E180CA7
:104DF0001800180018001800180C300EF007C00337
:104E0000000000000000000000000000000000188A
:104E10000018001800180018C01BF01F301C1818CC
:104E200018181818181818181818301CF01FC01B5C
:104E30000000000000000000000000000000000072
:104E40000000000000000000C003F00F300C181834
:104E5000F81FF81F180018003818301CF00FC00792
:104E60000000000000000000000000000000800FB3
:104E7000C00FC000C000C000F007F007C000C000B5
:104E8000C000C000C000C000C000C000C000C00022
:104E90000000000000000000000000000000000012
:104EA0000000000000000000E00DF80F180E0C0CD0
:104EB0000C0C0C0C0C0C0C0C0C0C180EF80FE00D60
:104EC000000C0C0C1C06F807F00100000000180094
:104ED0001800180018001800D807F80F381C181808
:104EE0001818181818181818181818181818181842
:104EF0000000000000000000000000000000C000F2
:104F0000C000000000000000C000C000C000C000E1
:104F1000C000C000C000C000C000C000C000C00091
:104F20000000000000000000000000000000C000C1
:104F3000C000000000000000C000C000C000C000B1
:104F4000C000C000C000C000C000C000C000C00061
:104F5000C000C000C000F8007800000000000C0095
:104F60000C000C000C000C000C0C0C060C038C014B
:104F7000CC006C00FC009C018C030C030C060C0C98
:104F80000000000000000000000000000000C00061
:104F9000C000C000C000C000C000C000C000C00011
:104FA000C000C000C000C000C000C000C000C00001
:104FB00000000000000000000000000000000000F1
:104FC00000000000000000007C3CFF7EC7E383C1BE
:104FD00083C183C183C183C183C183C183C183C1B1
:104FE00000000000000000000000000000000000C1
:104FF00000000000000000009807F80F381C181887
:105000001818181818181818181818181818181820
:105010000000000000000000000000000000000090
:105020000000000000000000C003F00F300C181852
:1050300018181818181818181818300CF00FC00382
:105040000000000000000000000000000000000060
:105050000000000000000000D803F80F380C1818FA
:1050600018181818181818181818380CF80FD8032A
:1050700018001800180018001800000000000000B8
:105080000000000000000000C01BF01F301C1818BA
:1050900018181818181818181818301CF01FC01BEA
:1050A0000018001800180018001800000000000088
:1050B0000000000000000000B007F00370003000A6
:1050C0003000300030003000300030003000300060
:1050D00000000000000000000000000000000000D0
:1050E0000000000000000000E003F003380E180C80
:1050F0003800F003C007000C180C380EF007E0036E
:10510000000000000000000000000000000000009F
:105110008000C000C000C000F007F007C000C00061
:10512000C000C000C000C000C000C000C0078007B1
:10513000000000000000000000000000000000006F
:10514000000000000000000018181818181818189F
:1051500018181818181818181818381CF01FE01903
:10516000000000000000000000000000000000003F
:1051700000000000000000000C18180C180C180C9F
:10518000300630063006600360036003C001C001D2
:10519000000000000000000000000000000000000F
:1051A0000000000000000000C141C141C361636311
:1051B000636363633636363636361C1C1C1C1C1C77
:1051C00000000000000000000000000000000000DF
:1051D00000000000000000001C38381C300C600685
:1051E000C003C003C003C0036006300C381C1C3869
:1051F00000000000000000000000000000000000AF
:10520000000000000000000018303018301870183E
:10521000600C600CE00CC006C006800380038003B5
:1052200080018001C001F00070000000000000005B
:105230000000000000000000FC1FFC1F000C000626
:1052400000038001C000600030001800FC1FFC1F3C
:10525000000000000000000000000000000000034B
:105260008001C000C000C000C000C000C0006000DD
:105270006000300060004000C000C000C000C000FE
:10528000C000C00080010003000000000000800199
:105290008001800180018001800180018001800106
:1052A00080018001800180018001800180018001F6
:1052B0008001800180018001800100000000600009
:1052C000C000C001800180018001800180010003D5
:1052D00000030006000300018001800180018001BD
:1052E00080018001C000600000000000000000009C
:1052F000000000000000000000000000F010F81F97
:10530000080F000000000000000000000000000086
:10531000000000000000000000000000000000008D
:10532000000000000000000000000000000000007D
:10533000000000000000000000000000000000006D
:10534000000000000000000000000000000000005D
:10535000000000000000C003300C081004200420EE
:105360000240024002400240024004200420081093
:10537000300CC0030000000000000000000000002E
:10538000000000000000C003F00FF81FFC3FFC3FCE
:10539000FE7FFE7FFE7FFE7FFE7FFC3FFC3FF81F0F
:1053A000F00FC0030000000000000000000000003B
:1053B00000000000000000000000E007F00F1818D7
:1053C00018181818181818181818F00FE007000007
:1053D00000000000000000000000000000000000CD
:1053E00000000000000000000000E007F00FF81FC0
:1053F000F81FF81FF81FF81FF81FF00FE007000054
:10540000000000000000000000000000000000009C
:10541000000000000000000000000000000000008C
:10542000000000008001C0036006300C1818181836
:10543000F81FF81F0000000000000000000000003E
:10544000000000000000000000000000000000005C
:10545000000000008001C003E007F00FF81FF81FF4
:10546000F81FF81F0000000000000000000000000E
:1054700000000000F81FF81F18181818300C6006FC
:10548000C0038001000000000000000000000000D8
:10549000000000000000000000000000000000000C
:1054A00000000000F81FF81FF81FF81FF00FE007BA
:1054B000C0038001000000000000000000000000A8
:1054C00000000000000000000000000000000000DC
:1054D00000000000000000000000E001F001980161
:1054E0008C01860186018C019801F001E001000029
:1054F00000000000000000000000000000000000AC
:1055000000000000000000000000E001F001F801D0
:10551000FC01FE01FE01FC01F801F001E0010000C8
:10552000000000000000000000000000000000007B
:10553000000000000000000000008007800F8019BC
:1055400080318061806180318019800F8007000088
:10555000000000000000000000000000000000004B
:10556000000000000000000000008007800F801F86
:10557000803F807F807F803F801F800F80070000FA
:105580000000000000000000000000000000C0015A
:105590002002200240013006080808080808080810
:1055A0000808080808082002200220022002200221
:1055B0002002200220022002200200000000C00180
:1055C000E003E003C001F007D80DD80DD80DD80DC9
:1055D000D80DD80DD80D600360036003600360032D
:1055E0006003600360036003600300000000C0010B
:1055F00020022002400130060808080808080410AC
:10560000022002204001200220021004080808089D
:105610000410041004200440000000000000C00139
:10562000E003E003C001F007D80DD80DD80DCC1968
:10563000C631C261C001600360037006380C180CEB
:105640000C180C180C300C6000000000000000105A
:10565000000000200000008004000000080000009E
:105660001000000020000000400000008327000020
:1056700000000000000000000B1B00000000000004
:10568000000000000000000000000000000000001A
:10569000000000000000000000000000000000000A
:1056A0000000000000000000000000008000082052
:1056B0008001082010000000140000001201000208
:1056C00000000040C91F024000010102030109025D
:1056D0006D00020100803209040000000101000099
:1056E0000924010001270001010C2402010101002D
:1056F0000100000000092406020101030000092442
:10570000030301030002000904010000010200007C
:105710000904010101010200000724010101010047
:105720000B24020101021001007D00090503014064
:105730000001000007250100000000000403090427
:105740001C034E00580050002000530065006D00FF
:10575000690063006F006E00640020002A034E00A1
:105760005800500020004C0050004300310037002A
:1057700078007800200053007000650061006B0025
:105780006500720020001A03440045004D004F00E0
:105790003000300030003000300030003000300089
:1057A000FFFFFFFFFFFFFFFFFFFFFFFFFFFFFFFF09
:1057B000FFFFFFFFFFFFFFFFFFFFFFFFFFFFFFFFF9
:1057C000FFFFFFFFFFFFFFFFFFFFFFFFFFFFFFFFE9
:1057D000FFFFFFFFFFFFFFFFFFFFFFFFFFFFFFFFD9
:1057E000FFFFFFFFFFFFFFFFFFFFFFFFFFFFFFFFC9
:1057F000FFFFBEFF3BEFB9EE15DE36E6D9EE3BF715
:105800009EF7FFFFFFFFFFFFFFFFFFFFFFFFFFFF11
:10581000FFFFFFFFFFFFFFFFFFFFFFFFFFFFFFFF98
:10582000FFFFFFFFFFFFFFFFFFFF3BF70CBC669A88
:1058300028B387CB88CBA8CBA9CBA9CB68C30CBC9A
:105840005CF7DFFFFFFFFFFFFFFFFFFFFFFFFFFF33
:10585000FFFFFFFFFFFFFFFFFFFFFFFFFFFFFFFF58
:10586000FFFF7CF7CABB67C3879288CBA8CBA9CBC5
:10587000CACBCACBCACBCACBA8CB88CB67C389BBA0
:105880009DFFFFFFFFFFFFFFFFFFFFFFFFFFFFFF8A
:10589000FFFFFFFFFFFFFFFFFFFFFFFFD4DD47BB61
:1058A00068C30582A9CBA9CBEACB0BCCEBCB0BD43D
:1058B000EACBEACBE9CBA9CBC9CB67C347C316DE9A
:1058C000FFFFFFFFFFFFFFFFFFFFFFFFFFFFFFFFE8
:1058D000FFFFFFFFFFFF73CD26BB67CBA79AA9C3CE
:1058E000C9CBEACB0BCC0BCC2BD42BD42BD40BCCED
:1058F0000ACCEACB0AD4E7A2C471226112B5FFFF39
:10590000FFFFFFFFFFFFFFFFFFFFFFFFFFFFFFFFA7
:10591000F5D505BB67C348BBC892A9CBCACBEBCBB7
:105920002CCC2CD42CD42BD40CCC2CD4EBC3878AE9
:105930008551668268BBA8CB27BB97E6FFFFFFFFB8
:10594000FFFFFFFFFFFFFFFFFFFF7DF707B327C349
:1059500067C3C892A9CBEACBEBCB0BCC2CCC4CD4F5
:105960002CCC4CCC2CCC4AA3076A49B3CACBA9CBCC
:10597000A9CB68C327C348BBFFFFFFFFFFFFFFFFA3
:10598000FFFFFFFFFFFFE7A205BB26BB48BB668208
:10599000A9CBEACBEBCB2BCC4CD44CCC4CCCECB342
:1059A0004FA4ECBB0BD4EBCBC9CBA9CBA9CB88CBF9
:1059B00047C3E6C24DBCFFFFFFFFFFFFFFFFFFFF36
:1059C0005CF7A6B2E6BA06C38692CACBA8C3EACBF6
:1059D000EACB0BCC4CD44CD48C93CCAB4CD42CCC4D
:1059E0000BCC0BCCC9CBA8C3A8CB68CB48C306BB98
:1059F000E6BADEFFFFFFFFFFFFFFFFFF6BAB66B204
:105A0000E6BA26C3068266CB88CBC9CBEACB0BD4D9
:105A1000ACB3C97A0CC42CCC2CCC2CCC0CCCEACB9F
:105A2000CACBA9CBA8CB47C347C306BBC5BA93D53E
:105A3000FFFFFFFFFFFF9EF725A2A6B2A5BA27C36F
:105A4000A47147C388C3A8C3EAD3677A887AEBCB2B
:105A50000BCC0CCC0BCC0BCCCACBA9CBA9CB88C321
:105A600068C347C327C306BBC6BA07A3FFFFFFFF30
:105A7000FFFF1BEF25AA2349C5BA459A469247C3A3
:105A800088C3E8AA8451E99AEBD30ACCEBCBEACBE2
:105A9000CAC3CACBAACB88C388CB68C327C327C3D2
:105AA00006BB06BBC6BAA6B2BEF7FFFFFFFF78E68D
:105AB00025AA058AE3406459868A057AE238845922
:105AC000AAC3CACBEACBCACBEBD3CACBC9CBA9CB2F
:105AD00089C389C368C347C306BB06C306C306C3DD
